{
  "contractName": "HospitalDetails",
  "abi": [
    {
      "constant": true,
      "inputs": [
        {
          "internalType": "string",
          "name": "",
          "type": "string"
        }
      ],
      "name": "patients",
      "outputs": [
        {
          "internalType": "string",
          "name": "patientId",
          "type": "string"
        },
        {
          "internalType": "uint256",
          "name": "age",
          "type": "uint256"
        }
      ],
      "payable": false,
      "stateMutability": "view",
      "type": "function"
    },
    {
      "constant": false,
      "inputs": [
        {
          "internalType": "string",
          "name": "patientId",
          "type": "string"
        },
        {
          "internalType": "uint256",
          "name": "age",
          "type": "uint256"
        }
      ],
      "name": "addPatient",
      "outputs": [],
      "payable": false,
      "stateMutability": "nonpayable",
      "type": "function"
    }
  ],
  "bytecode": "0x608060405234801561001057600080fd5b50610684806100206000396000f3fe608060405234801561001057600080fd5b50600436106100365760003560e01c8063a5b7d9841461003b578063c6009d8414610057575b600080fd5b610055600480360361005091908101906103a2565b610088565b005b610071600480360361006c9190810190610361565b61012d565b60405161007f9291906104c6565b60405180910390f35b60008251116100cc576040517f08c379a00000000000000000000000000000000000000000000000000000000081526004016100c3906104f6565b60405180910390fd5b6040518060400160405280838152602001828152506000836040516100f191906104af565b9081526020016040518091039020600082015181600001908051906020019061011b9291906101ff565b50602082015181600101559050505050565b600081805160208101820180518482526020830160208501208183528095505050505050600091509050806000018054600181600116156101000203166002900480601f0160208091040260200160405190810160405280929190818152602001828054600181600116156101000203166002900480156101ef5780601f106101c4576101008083540402835291602001916101ef565b820191906000526020600020905b8154815290600101906020018083116101d257829003601f168201915b5050505050908060010154905082565b828054600181600116156101000203166002900490600052602060002090601f016020900481019282601f1061024057805160ff191683800117855561026e565b8280016001018555821561026e579182015b8281111561026d578251825591602001919060010190610252565b5b50905061027b919061027f565b5090565b6102a191905b8082111561029d576000816000905550600101610285565b5090565b90565b600082601f8301126102b557600080fd5b81356102c86102c382610543565b610516565b915080825260208301602083018583830111156102e457600080fd5b6102ef8382846105d7565b50505092915050565b600082601f83011261030957600080fd5b813561031c6103178261056f565b610516565b9150808252602083016020830185838301111561033857600080fd5b6103438382846105d7565b50505092915050565b60008135905061035b8161062a565b92915050565b60006020828403121561037357600080fd5b600082013567ffffffffffffffff81111561038d57600080fd5b610399848285016102a4565b91505092915050565b600080604083850312156103b557600080fd5b600083013567ffffffffffffffff8111156103cf57600080fd5b6103db858286016102f8565b92505060206103ec8582860161034c565b9150509250929050565b6000610401826105a6565b61040b81856105c2565b935061041b8185602086016105e6565b80840191505092915050565b60006104328261059b565b61043c81856105b1565b935061044c8185602086016105e6565b61045581610619565b840191505092915050565b600061046d601a836105b1565b91507f50617469656e742049442063616e6e6f7420626520656d7074790000000000006000830152602082019050919050565b6104a9816105cd565b82525050565b60006104bb82846103f6565b915081905092915050565b600060408201905081810360008301526104e08185610427565b90506104ef60208301846104a0565b9392505050565b6000602082019050818103600083015261050f81610460565b9050919050565b6000604051905081810181811067ffffffffffffffff8211171561053957600080fd5b8060405250919050565b600067ffffffffffffffff82111561055a57600080fd5b601f19601f8301169050602081019050919050565b600067ffffffffffffffff82111561058657600080fd5b601f19601f8301169050602081019050919050565b600081519050919050565b600081519050919050565b600082825260208201905092915050565b600081905092915050565b6000819050919050565b82818337600083830152505050565b60005b838110156106045780820151818401526020810190506105e9565b83811115610613576000848401525b50505050565b6000601f19601f8301169050919050565b610633816105cd565b811461063e57600080fd5b5056fea365627a7a723158207493e03d1194a4c036310efb5722ea429edfbf84d0d3ef765b2d9ccaf4cdecef6c6578706572696d656e74616cf564736f6c63430005100040",
  "source": "// SPDX-License-Identifier: MIT\r\npragma solidity ^0.5.0;\r\npragma experimental ABIEncoderV2;\r\n\r\ncontract HospitalDetails {\r\n    // Struct to represent a patient's details (excluding sensitive data like name)\r\n    struct Patient {\r\n        string patientId;\r\n        uint age; // Consider hashing sensitive data before storing on-chain\r\n    }\r\n\r\n    mapping(string => Patient) public patients;\r\n\r\n    function addPatient(string memory patientId, uint age) public {\r\n        // Validate patientId to prevent empty or invalid values\r\n        require(bytes(patientId).length > 0, \"Patient ID cannot be empty\");\r\n\r\n        patients[patientId] = Patient(patientId, age);\r\n    }\r\n}",
  "sourcePath": "C:\\Users\\kotha\\Desktop\\SE\\patient_data_management\\contracts\\Hospital.sol",
  "compiler": {
    "name": "solc",
    "version": "0.5.16+commit.9c3226ce.Emscripten.clang"
  },
  "schemaVersion": "3.4.16",
  "updatedAt": "2024-04-30T16:49:14.066Z",
  "devdoc": {
    "methods": {}
  },
  "userdoc": {
    "methods": {}
  }
}