{
  "contractName": "Insurance",
  "abi": [
    {
      "anonymous": false,
      "inputs": [
        {
          "indexed": true,
          "internalType": "string",
          "name": "patientId",
          "type": "string"
        },
        {
          "indexed": false,
          "internalType": "string",
          "name": "patientName",
          "type": "string"
        },
        {
          "indexed": false,
          "internalType": "string",
          "name": "billType",
          "type": "string"
        },
        {
          "indexed": false,
          "internalType": "string",
          "name": "amount",
          "type": "string"
        }
      ],
      "name": "MedicalBillAdded",
      "type": "event"
    },
    {
      "anonymous": false,
      "inputs": [
        {
          "indexed": true,
          "internalType": "string",
          "name": "patientId",
          "type": "string"
        },
        {
          "indexed": false,
          "internalType": "string",
          "name": "patientName",
          "type": "string"
        },
        {
          "indexed": false,
          "internalType": "string",
          "name": "billType",
          "type": "string"
        },
        {
          "indexed": false,
          "internalType": "string",
          "name": "amount",
          "type": "string"
        }
      ],
      "name": "PatientBillAdded",
      "type": "event"
    },
    {
      "constant": true,
      "inputs": [],
      "name": "amount",
      "outputs": [
        {
          "internalType": "string",
          "name": "",
          "type": "string"
        }
      ],
      "payable": false,
      "stateMutability": "view",
      "type": "function"
    },
    {
      "constant": true,
      "inputs": [],
      "name": "billType",
      "outputs": [
        {
          "internalType": "string",
          "name": "",
          "type": "string"
        }
      ],
      "payable": false,
      "stateMutability": "view",
      "type": "function"
    },
    {
      "constant": true,
      "inputs": [],
      "name": "patientId",
      "outputs": [
        {
          "internalType": "string",
          "name": "",
          "type": "string"
        }
      ],
      "payable": false,
      "stateMutability": "view",
      "type": "function"
    },
    {
      "constant": true,
      "inputs": [],
      "name": "patientName",
      "outputs": [
        {
          "internalType": "string",
          "name": "",
          "type": "string"
        }
      ],
      "payable": false,
      "stateMutability": "view",
      "type": "function"
    },
    {
      "constant": false,
      "inputs": [
        {
          "internalType": "string",
          "name": "_patientId",
          "type": "string"
        },
        {
          "internalType": "string",
          "name": "_patientName",
          "type": "string"
        },
        {
          "internalType": "string",
          "name": "_billType",
          "type": "string"
        },
        {
          "internalType": "string",
          "name": "_amount",
          "type": "string"
        }
      ],
      "name": "setPatientBill",
      "outputs": [],
      "payable": false,
      "stateMutability": "nonpayable",
      "type": "function"
    },
    {
      "constant": false,
      "inputs": [
        {
          "internalType": "string",
          "name": "_patientId",
          "type": "string"
        },
        {
          "internalType": "string",
          "name": "_patientName",
          "type": "string"
        },
        {
          "internalType": "string",
          "name": "_billType",
          "type": "string"
        },
        {
          "internalType": "string",
          "name": "_amount",
          "type": "string"
        }
      ],
      "name": "setMedicalBill",
      "outputs": [],
      "payable": false,
      "stateMutability": "nonpayable",
      "type": "function"
    },
    {
      "constant": true,
      "inputs": [
        {
          "internalType": "string",
          "name": "_patientId",
          "type": "string"
        },
        {
          "internalType": "string",
          "name": "_patientName",
          "type": "string"
        },
        {
          "internalType": "string",
          "name": "_billType",
          "type": "string"
        },
        {
          "internalType": "string",
          "name": "_amount",
          "type": "string"
        }
      ],
      "name": "checkBill",
      "outputs": [
        {
          "internalType": "string",
          "name": "",
          "type": "string"
        }
      ],
      "payable": false,
      "stateMutability": "view",
      "type": "function"
    }
  ],
  "bytecode": "0x608060405234801561001057600080fd5b50610bfe806100206000396000f3fe608060405234801561001057600080fd5b506004361061007d5760003560e01c8063aa8c217c1161005b578063aa8c217c146100ec578063b522b27e1461010a578063bdd8c57b14610128578063e07f4444146101445761007d565b80630d0887d5146100825780633ae5c92a146100b257806398f6f0e1146100ce575b600080fd5b61009c60048036036100979190810190610816565b610162565b6040516100a99190610a5a565b60405180910390f35b6100cc60048036036100c79190810190610816565b61033f565b005b6100d66103f2565b6040516100e39190610a38565b60405180910390f35b6100f4610490565b6040516101019190610a38565b60405180910390f35b61011261052e565b60405161011f9190610a38565b60405180910390f35b610142600480360361013d9190810190610816565b6105cc565b005b61014c61067f565b6040516101599190610a38565b60405180910390f35b606060006040516020016101769190610a21565b604051602081830303815290604052805190602001208560405160200161019d9190610a0a565b6040516020818303038152906040528051906020012014801561020c575060016040516020016101cd9190610a21565b60405160208183030381529060405280519060200120846040516020016101f49190610a0a565b60405160208183030381529060405280519060200120145b8015610264575060026040516020016102259190610a21565b604051602081830303815290604052805190602001208360405160200161024c9190610a0a565b60405160208183030381529060405280519060200120145b80156102bc5750600360405160200161027d9190610a21565b60405160208183030381529060405280519060200120826040516020016102a49190610a0a565b60405160208183030381529060405280519060200120145b156102fe576040518060400160405280600a81526020017f56616c69642062696c6c000000000000000000000000000000000000000000008152509050610337565b6040518060400160405280600c81526020017f496e76616c69642062696c6c000000000000000000000000000000000000000081525090505b949350505050565b836000908051906020019061035592919061071d565b50826001908051906020019061036c92919061071d565b50816002908051906020019061038392919061071d565b50806003908051906020019061039a92919061071d565b50836040516103a99190610a0a565b60405180910390207fe9a184f3cd12ce3e2874c16dc1f3668fb61728ee0cceb509ae30aa8a7ea1db598484846040516103e493929190610a7c565b60405180910390a250505050565b60018054600181600116156101000203166002900480601f0160208091040260200160405190810160405280929190818152602001828054600181600116156101000203166002900480156104885780601f1061045d57610100808354040283529160200191610488565b820191906000526020600020905b81548152906001019060200180831161046b57829003601f168201915b505050505081565b60038054600181600116156101000203166002900480601f0160208091040260200160405190810160405280929190818152602001828054600181600116156101000203166002900480156105265780601f106104fb57610100808354040283529160200191610526565b820191906000526020600020905b81548152906001019060200180831161050957829003601f168201915b505050505081565b60028054600181600116156101000203166002900480601f0160208091040260200160405190810160405280929190818152602001828054600181600116156101000203166002900480156105c45780601f10610599576101008083540402835291602001916105c4565b820191906000526020600020905b8154815290600101906020018083116105a757829003601f168201915b505050505081565b83600090805190602001906105e292919061071d565b5082600190805190602001906105f992919061071d565b50816002908051906020019061061092919061071d565b50806003908051906020019061062792919061071d565b50836040516106369190610a0a565b60405180910390207f964bf179fd832977761e9841daf120820176d1bd6d088adb78bc3e41f114dce784848460405161067193929190610a7c565b60405180910390a250505050565b60008054600181600116156101000203166002900480601f0160208091040260200160405190810160405280929190818152602001828054600181600116156101000203166002900480156107155780601f106106ea57610100808354040283529160200191610715565b820191906000526020600020905b8154815290600101906020018083116106f857829003601f168201915b505050505081565b828054600181600116156101000203166002900490600052602060002090601f016020900481019282601f1061075e57805160ff191683800117855561078c565b8280016001018555821561078c579182015b8281111561078b578251825591602001919060010190610770565b5b509050610799919061079d565b5090565b6107bf91905b808211156107bb5760008160009055506001016107a3565b5090565b90565b600082601f8301126107d357600080fd5b81356107e66107e182610af5565b610ac8565b9150808252602083016020830185838301111561080257600080fd5b61080d838284610b68565b50505092915050565b6000806000806080858703121561082c57600080fd5b600085013567ffffffffffffffff81111561084657600080fd5b610852878288016107c2565b945050602085013567ffffffffffffffff81111561086f57600080fd5b61087b878288016107c2565b935050604085013567ffffffffffffffff81111561089857600080fd5b6108a4878288016107c2565b925050606085013567ffffffffffffffff8111156108c157600080fd5b6108cd878288016107c2565b91505092959194509250565b60006108e482610b41565b6108ee8185610b4c565b93506108fe818560208601610b77565b61090781610baa565b840191505092915050565b600061091d82610b41565b6109278185610b5d565b9350610937818560208601610b77565b80840191505092915050565b600061094e82610b36565b6109588185610b4c565b9350610968818560208601610b77565b61097181610baa565b840191505092915050565b60008154600181166000811461099957600181146109be57610a02565b607f60028304166109aa8187610b5d565b955060ff1983168652808601935050610a02565b600282046109cc8187610b5d565b95506109d785610b21565b60005b828110156109f9578154818901526001820191506020810190506109da565b82880195505050505b505092915050565b6000610a168284610912565b915081905092915050565b6000610a2d828461097c565b915081905092915050565b60006020820190508181036000830152610a528184610943565b905092915050565b60006020820190508181036000830152610a7481846108d9565b905092915050565b60006060820190508181036000830152610a9681866108d9565b90508181036020830152610aaa81856108d9565b90508181036040830152610abe81846108d9565b9050949350505050565b6000604051905081810181811067ffffffffffffffff82111715610aeb57600080fd5b8060405250919050565b600067ffffffffffffffff821115610b0c57600080fd5b601f19601f8301169050602081019050919050565b60008190508160005260206000209050919050565b600081519050919050565b600081519050919050565b600082825260208201905092915050565b600081905092915050565b82818337600083830152505050565b60005b83811015610b95578082015181840152602081019050610b7a565b83811115610ba4576000848401525b50505050565b6000601f19601f830116905091905056fea365627a7a723158206cee7832c55392482047c86c5bb17234107386dc5843b30968d33723e27b70936c6578706572696d656e74616cf564736f6c63430005100040",
  "source": "// SPDX-License-Identifier: MIT\r\npragma solidity ^0.5.0;\r\npragma experimental ABIEncoderV2;\r\n\r\ncontract Insurance {\r\n    // Variables to store emitted values from Patient and Medical contracts\r\n    string public patientId;\r\n    string public patientName;\r\n    string public billType;\r\n    string public amount;\r\n\r\n    // Events to listen for emitted values from Patient and Medical contracts\r\n    event PatientBillAdded(string indexed patientId, string patientName, string billType, string amount);\r\n    event MedicalBillAdded(string indexed patientId, string patientName, string billType, string amount);\r\n\r\n    // Function to store emitted values from Patient contract\r\n    function setPatientBill(string memory _patientId, string memory _patientName, string memory _billType, string memory _amount) public {\r\n        patientId = _patientId;\r\n        patientName = _patientName;\r\n        billType = _billType;\r\n        amount = _amount;\r\n        emit PatientBillAdded(_patientId, _patientName, _billType, _amount);\r\n    }\r\n\r\n    // Function to store emitted values from Medical contract\r\n    function setMedicalBill(string memory _patientId, string memory _patientName, string memory _billType, string memory _amount) public {\r\n        patientId = _patientId;\r\n        patientName = _patientName;\r\n        billType = _billType;\r\n        amount = _amount;\r\n        emit MedicalBillAdded(_patientId, _patientName, _billType, _amount);\r\n    }\r\n\r\n    // Function to check if the patient and medical bills match\r\n    function checkBill(string memory _patientId, string memory _patientName, string memory _billType, string memory _amount) public view returns (string memory) {\r\n        if (keccak256(abi.encodePacked(_patientId)) == keccak256(abi.encodePacked(patientId)) &&\r\n            keccak256(abi.encodePacked(_patientName)) == keccak256(abi.encodePacked(patientName)) &&\r\n            keccak256(abi.encodePacked(_billType)) == keccak256(abi.encodePacked(billType)) &&\r\n            keccak256(abi.encodePacked(_amount)) == keccak256(abi.encodePacked(amount))) {\r\n            return \"Valid bill\";\r\n        } else {\r\n            return \"Invalid bill\";\r\n        }\r\n    }\r\n}\r\n",
  "sourcePath": "C:\\Users\\kotha\\Desktop\\SE\\patient_data_management\\contracts\\Insurance.sol",
  "compiler": {
    "name": "solc",
    "version": "0.5.16+commit.9c3226ce.Emscripten.clang"
  },
  "schemaVersion": "3.4.16",
  "updatedAt": "2024-05-09T05:59:43.041Z",
  "devdoc": {
    "methods": {}
  },
  "userdoc": {
    "methods": {}
  }
}