{
  "contractName": "Medical",
  "abi": [
    {
      "anonymous": false,
      "inputs": [
        {
          "indexed": true,
          "internalType": "string",
          "name": "patientId",
          "type": "string"
        },
        {
          "indexed": false,
          "internalType": "string",
          "name": "patientName",
          "type": "string"
        },
        {
          "indexed": false,
          "internalType": "string",
          "name": "billType",
          "type": "string"
        },
        {
          "indexed": false,
          "internalType": "string",
          "name": "amount",
          "type": "string"
        }
      ],
      "name": "BillAdded",
      "type": "event"
    },
    {
      "constant": true,
      "inputs": [
        {
          "internalType": "uint256",
          "name": "",
          "type": "uint256"
        }
      ],
      "name": "bills",
      "outputs": [
        {
          "internalType": "string",
          "name": "patientId",
          "type": "string"
        },
        {
          "internalType": "string",
          "name": "patientName",
          "type": "string"
        },
        {
          "internalType": "string",
          "name": "billType",
          "type": "string"
        },
        {
          "internalType": "string",
          "name": "amount",
          "type": "string"
        }
      ],
      "payable": false,
      "stateMutability": "view",
      "type": "function"
    },
    {
      "constant": false,
      "inputs": [
        {
          "internalType": "string",
          "name": "_patientId",
          "type": "string"
        },
        {
          "internalType": "string",
          "name": "_patientName",
          "type": "string"
        },
        {
          "internalType": "string",
          "name": "_billType",
          "type": "string"
        },
        {
          "internalType": "string",
          "name": "_amount",
          "type": "string"
        }
      ],
      "name": "addMedicalBill",
      "outputs": [],
      "payable": false,
      "stateMutability": "nonpayable",
      "type": "function"
    }
  ],
  "bytecode": "0x608060405234801561001057600080fd5b5061091a806100206000396000f3fe608060405234801561001057600080fd5b50600436106100365760003560e01c80631ef348941461003b57806328bdcde814610057575b600080fd5b61005560048036036100509190810190610585565b61008a565b005b610071600480360361006c9190810190610648565b6101b2565b6040516100819493929190610777565b60405180910390f35b61009261044f565b60405180608001604052808681526020018581526020018481526020018381525090506000819080600181540180825580915050906001820390600052602060002090600402016000909192909190915060008201518160000190805190602001906100ff929190610477565b50602082015181600101908051906020019061011c929190610477565b506040820151816002019080519060200190610139929190610477565b506060820151816003019080519060200190610156929190610477565b50505050846040516101689190610714565b60405180910390207f2b2fae659502228cc32f4e1e9c16b957ab9f467d8f0fda1dfae5c80f0defa4938585856040516101a39392919061072b565b60405180910390a25050505050565b600081815481106101bf57fe5b9060005260206000209060040201600091509050806000018054600181600116156101000203166002900480601f01602080910402602001604051908101604052809291908181526020018280546001816001161561010002031660029004801561026b5780601f106102405761010080835404028352916020019161026b565b820191906000526020600020905b81548152906001019060200180831161024e57829003601f168201915b505050505090806001018054600181600116156101000203166002900480601f0160208091040260200160405190810160405280929190818152602001828054600181600116156101000203166002900480156103095780601f106102de57610100808354040283529160200191610309565b820191906000526020600020905b8154815290600101906020018083116102ec57829003601f168201915b505050505090806002018054600181600116156101000203166002900480601f0160208091040260200160405190810160405280929190818152602001828054600181600116156101000203166002900480156103a75780601f1061037c576101008083540402835291602001916103a7565b820191906000526020600020905b81548152906001019060200180831161038a57829003601f168201915b505050505090806003018054600181600116156101000203166002900480601f0160208091040260200160405190810160405280929190818152602001828054600181600116156101000203166002900480156104455780601f1061041a57610100808354040283529160200191610445565b820191906000526020600020905b81548152906001019060200180831161042857829003601f168201915b5050505050905084565b6040518060800160405280606081526020016060815260200160608152602001606081525090565b828054600181600116156101000203166002900490600052602060002090601f016020900481019282601f106104b857805160ff19168380011785556104e6565b828001600101855582156104e6579182015b828111156104e55782518255916020019190600101906104ca565b5b5090506104f391906104f7565b5090565b61051991905b808211156105155760008160009055506001016104fd565b5090565b90565b600082601f83011261052d57600080fd5b813561054061053b82610805565b6107d8565b9150808252602083016020830185838301111561055c57600080fd5b61056783828461086d565b50505092915050565b60008135905061057f816108c0565b92915050565b6000806000806080858703121561059b57600080fd5b600085013567ffffffffffffffff8111156105b557600080fd5b6105c18782880161051c565b945050602085013567ffffffffffffffff8111156105de57600080fd5b6105ea8782880161051c565b935050604085013567ffffffffffffffff81111561060757600080fd5b6106138782880161051c565b925050606085013567ffffffffffffffff81111561063057600080fd5b61063c8782880161051c565b91505092959194509250565b60006020828403121561065a57600080fd5b600061066884828501610570565b91505092915050565b600061067c8261083c565b6106868185610847565b935061069681856020860161087c565b61069f816108af565b840191505092915050565b60006106b58261083c565b6106bf8185610858565b93506106cf81856020860161087c565b80840191505092915050565b60006106e682610831565b6106f08185610847565b935061070081856020860161087c565b610709816108af565b840191505092915050565b600061072082846106aa565b915081905092915050565b600060608201905081810360008301526107458186610671565b905081810360208301526107598185610671565b9050818103604083015261076d8184610671565b9050949350505050565b6000608082019050818103600083015261079181876106db565b905081810360208301526107a581866106db565b905081810360408301526107b981856106db565b905081810360608301526107cd81846106db565b905095945050505050565b6000604051905081810181811067ffffffffffffffff821117156107fb57600080fd5b8060405250919050565b600067ffffffffffffffff82111561081c57600080fd5b601f19601f8301169050602081019050919050565b600081519050919050565b600081519050919050565b600082825260208201905092915050565b600081905092915050565b6000819050919050565b82818337600083830152505050565b60005b8381101561089a57808201518184015260208101905061087f565b838111156108a9576000848401525b50505050565b6000601f19601f8301169050919050565b6108c981610863565b81146108d457600080fd5b5056fea365627a7a723158206cab12bdc953093d5cdef960e5891675b9a8e203ed02787078826bf71884e6886c6578706572696d656e74616cf564736f6c63430005100040",
  "source": "// SPDX-License-Identifier: MIT\r\npragma solidity ^0.5.0;\r\npragma experimental ABIEncoderV2;\r\ncontract Medical {\r\n    // Define a struct to represent medical bill details\r\n    struct Bill {\r\n        string patientId;\r\n        string patientName;\r\n        string billType;\r\n        string amount;\r\n    }\r\n\r\n    // Define an array to store medical bills\r\n    Bill[] public bills;\r\n\r\n    // Event to emit when a new medical bill is added\r\n    event BillAdded(\r\n        string indexed patientId,\r\n        string patientName,\r\n        string billType,\r\n        string amount\r\n    );\r\n\r\n    // Function to add a new medical bill\r\n    function addMedicalBill(string memory _patientId, string memory _patientName, string memory _billType, string memory _amount) public {\r\n        // Create a new bill object\r\n        Bill memory newBill = Bill(_patientId, _patientName, _billType, _amount);\r\n\r\n        // Add the new bill to the array\r\n        bills.push(newBill);\r\n\r\n        // Emit the BillAdded event\r\n        emit BillAdded(_patientId, _patientName, _billType, _amount);\r\n    }\r\n}\r\n",
  "sourcePath": "C:\\Users\\kotha\\Desktop\\SE\\patient_data_management\\contracts\\Medical.sol",
  "compiler": {
    "name": "solc",
    "version": "0.5.16+commit.9c3226ce.Emscripten.clang"
  },
  "schemaVersion": "3.4.16",
  "updatedAt": "2024-05-09T05:59:43.043Z",
  "devdoc": {
    "methods": {}
  },
  "userdoc": {
    "methods": {}
  }
}