{
  "contractName": "PatientDetails",
  "abi": [
    {
      "constant": true,
      "inputs": [
        {
          "internalType": "string",
          "name": "",
          "type": "string"
        }
      ],
      "name": "patients",
      "outputs": [
        {
          "internalType": "string",
          "name": "patientId",
          "type": "string"
        },
        {
          "internalType": "string",
          "name": "patientName",
          "type": "string"
        },
        {
          "internalType": "uint256",
          "name": "age",
          "type": "uint256"
        }
      ],
      "payable": false,
      "stateMutability": "view",
      "type": "function"
    },
    {
      "constant": false,
      "inputs": [
        {
          "internalType": "string",
          "name": "patientId",
          "type": "string"
        },
        {
          "internalType": "string",
          "name": "patientName",
          "type": "string"
        },
        {
          "internalType": "uint256",
          "name": "age",
          "type": "uint256"
        }
      ],
      "name": "addPatient",
      "outputs": [],
      "payable": false,
      "stateMutability": "nonpayable",
      "type": "function"
    }
  ],
  "bytecode": "0x608060405234801561001057600080fd5b506106e3806100206000396000f3fe608060405234801561001057600080fd5b50600436106100365760003560e01c80630a72fa431461003b578063c6009d8414610057575b600080fd5b61005560048036036100509190810190610421565b610089565b005b610071600480360361006c91908101906103e0565b61010e565b60405161008093929190610530565b60405180910390f35b6040518060600160405280848152602001838152602001828152506000846040516100b49190610519565b908152602001604051809103902060008201518160000190805190602001906100de92919061027e565b5060208201518160010190805190602001906100fb92919061027e565b5060408201518160020155905050505050565b600081805160208101820180518482526020830160208501208183528095505050505050600091509050806000018054600181600116156101000203166002900480601f0160208091040260200160405190810160405280929190818152602001828054600181600116156101000203166002900480156101d05780601f106101a5576101008083540402835291602001916101d0565b820191906000526020600020905b8154815290600101906020018083116101b357829003601f168201915b505050505090806001018054600181600116156101000203166002900480601f01602080910402602001604051908101604052809291908181526020018280546001816001161561010002031660029004801561026e5780601f106102435761010080835404028352916020019161026e565b820191906000526020600020905b81548152906001019060200180831161025157829003601f168201915b5050505050908060020154905083565b828054600181600116156101000203166002900490600052602060002090601f016020900481019282601f106102bf57805160ff19168380011785556102ed565b828001600101855582156102ed579182015b828111156102ec5782518255916020019190600101906102d1565b5b5090506102fa91906102fe565b5090565b61032091905b8082111561031c576000816000905550600101610304565b5090565b90565b600082601f83011261033457600080fd5b8135610347610342826105a2565b610575565b9150808252602083016020830185838301111561036357600080fd5b61036e838284610636565b50505092915050565b600082601f83011261038857600080fd5b813561039b610396826105ce565b610575565b915080825260208301602083018583830111156103b757600080fd5b6103c2838284610636565b50505092915050565b6000813590506103da81610689565b92915050565b6000602082840312156103f257600080fd5b600082013567ffffffffffffffff81111561040c57600080fd5b61041884828501610323565b91505092915050565b60008060006060848603121561043657600080fd5b600084013567ffffffffffffffff81111561045057600080fd5b61045c86828701610377565b935050602084013567ffffffffffffffff81111561047957600080fd5b61048586828701610377565b9250506040610496868287016103cb565b9150509250925092565b60006104ab82610605565b6104b58185610621565b93506104c5818560208601610645565b80840191505092915050565b60006104dc826105fa565b6104e68185610610565b93506104f6818560208601610645565b6104ff81610678565b840191505092915050565b6105138161062c565b82525050565b600061052582846104a0565b915081905092915050565b6000606082019050818103600083015261054a81866104d1565b9050818103602083015261055e81856104d1565b905061056d604083018461050a565b949350505050565b6000604051905081810181811067ffffffffffffffff8211171561059857600080fd5b8060405250919050565b600067ffffffffffffffff8211156105b957600080fd5b601f19601f8301169050602081019050919050565b600067ffffffffffffffff8211156105e557600080fd5b601f19601f8301169050602081019050919050565b600081519050919050565b600081519050919050565b600082825260208201905092915050565b600081905092915050565b6000819050919050565b82818337600083830152505050565b60005b83811015610663578082015181840152602081019050610648565b83811115610672576000848401525b50505050565b6000601f19601f8301169050919050565b6106928161062c565b811461069d57600080fd5b5056fea365627a7a7231582027c47c685c69729d99a339a6e870ce526a6d877abb24096b407ce2713c86ad2f6c6578706572696d656e74616cf564736f6c63430005100040",
  "source": "// SPDX-License-Identifier: MIT\r\npragma solidity ^0.5.0;\r\npragma experimental ABIEncoderV2;\r\ncontract PatientDetails {\r\n    struct Patient {\r\n        string patientId;\r\n        string patientName;\r\n        uint age;\r\n    }\r\n\r\n    mapping(string => Patient) public patients;\r\n\r\n    function addPatient(string memory patientId, string memory patientName, uint age) public {\r\n        patients[patientId] = Patient(patientId, patientName, age);\r\n    }\r\n}\r\n",
  "sourcePath": "C:\\Users\\kotha\\Desktop\\SE\\patient_data_management\\contracts\\Hospital.sol",
  "compiler": {
    "name": "solc",
    "version": "0.5.16+commit.9c3226ce.Emscripten.clang"
  },
  "schemaVersion": "3.4.16",
  "updatedAt": "2024-04-29T16:25:09.821Z",
  "devdoc": {
    "methods": {}
  },
  "userdoc": {
    "methods": {}
  }
}