{
  "contractName": "Patient",
  "abi": [
    {
      "anonymous": false,
      "inputs": [
        {
          "indexed": true,
          "internalType": "string",
          "name": "username",
          "type": "string"
        },
        {
          "indexed": true,
          "internalType": "string",
          "name": "patientId",
          "type": "string"
        },
        {
          "indexed": false,
          "internalType": "string",
          "name": "billType",
          "type": "string"
        },
        {
          "indexed": false,
          "internalType": "string",
          "name": "amount",
          "type": "string"
        }
      ],
      "name": "BillAdded",
      "type": "event"
    },
    {
      "constant": true,
      "inputs": [
        {
          "internalType": "uint256",
          "name": "",
          "type": "uint256"
        }
      ],
      "name": "bills",
      "outputs": [
        {
          "internalType": "string",
          "name": "username",
          "type": "string"
        },
        {
          "internalType": "string",
          "name": "patientId",
          "type": "string"
        },
        {
          "internalType": "string",
          "name": "billType",
          "type": "string"
        },
        {
          "internalType": "string",
          "name": "amount",
          "type": "string"
        }
      ],
      "payable": false,
      "stateMutability": "view",
      "type": "function"
    },
    {
      "constant": false,
      "inputs": [
        {
          "internalType": "string",
          "name": "_username",
          "type": "string"
        },
        {
          "internalType": "string",
          "name": "_patientId",
          "type": "string"
        },
        {
          "internalType": "string",
          "name": "_billType",
          "type": "string"
        },
        {
          "internalType": "string",
          "name": "_amount",
          "type": "string"
        }
      ],
      "name": "addBill",
      "outputs": [],
      "payable": false,
      "stateMutability": "nonpayable",
      "type": "function"
    }
  ],
  "bytecode": "0x608060405234801561001057600080fd5b50610919806100206000396000f3fe608060405234801561001057600080fd5b50600436106100365760003560e01c806328bdcde81461003b578063f9f7c7e91461006e575b600080fd5b6100556004803603610050919081019061065c565b61008a565b6040516100659493929190610776565b60405180910390f35b61008860048036036100839190810190610599565b610327565b005b6000818154811061009757fe5b9060005260206000209060040201600091509050806000018054600181600116156101000203166002900480601f0160208091040260200160405190810160405280929190818152602001828054600181600116156101000203166002900480156101435780601f1061011857610100808354040283529160200191610143565b820191906000526020600020905b81548152906001019060200180831161012657829003601f168201915b505050505090806001018054600181600116156101000203166002900480601f0160208091040260200160405190810160405280929190818152602001828054600181600116156101000203166002900480156101e15780601f106101b6576101008083540402835291602001916101e1565b820191906000526020600020905b8154815290600101906020018083116101c457829003601f168201915b505050505090806002018054600181600116156101000203166002900480601f01602080910402602001604051908101604052809291908181526020018280546001816001161561010002031660029004801561027f5780601f106102545761010080835404028352916020019161027f565b820191906000526020600020905b81548152906001019060200180831161026257829003601f168201915b505050505090806003018054600181600116156101000203166002900480601f01602080910402602001604051908101604052809291908181526020018280546001816001161561010002031660029004801561031d5780601f106102f25761010080835404028352916020019161031d565b820191906000526020600020905b81548152906001019060200180831161030057829003601f168201915b5050505050905084565b61032f610463565b604051806080016040528086815260200185815260200184815260200183815250905060008190806001815401808255809150509060018203906000526020600020906004020160009091929091909150600082015181600001908051906020019061039c92919061048b565b5060208201518160010190805190602001906103b992919061048b565b5060408201518160020190805190602001906103d692919061048b565b5060608201518160030190805190602001906103f392919061048b565b50505050836040516104059190610728565b60405180910390208560405161041b9190610728565b60405180910390207f2b2fae659502228cc32f4e1e9c16b957ab9f467d8f0fda1dfae5c80f0defa493858560405161045492919061073f565b60405180910390a35050505050565b6040518060800160405280606081526020016060815260200160608152602001606081525090565b828054600181600116156101000203166002900490600052602060002090601f016020900481019282601f106104cc57805160ff19168380011785556104fa565b828001600101855582156104fa579182015b828111156104f95782518255916020019190600101906104de565b5b509050610507919061050b565b5090565b61052d91905b80821115610529576000816000905550600101610511565b5090565b90565b600082601f83011261054157600080fd5b813561055461054f82610804565b6107d7565b9150808252602083016020830185838301111561057057600080fd5b61057b83828461086c565b50505092915050565b600081359050610593816108bf565b92915050565b600080600080608085870312156105af57600080fd5b600085013567ffffffffffffffff8111156105c957600080fd5b6105d587828801610530565b945050602085013567ffffffffffffffff8111156105f257600080fd5b6105fe87828801610530565b935050604085013567ffffffffffffffff81111561061b57600080fd5b61062787828801610530565b925050606085013567ffffffffffffffff81111561064457600080fd5b61065087828801610530565b91505092959194509250565b60006020828403121561066e57600080fd5b600061067c84828501610584565b91505092915050565b60006106908261083b565b61069a8185610846565b93506106aa81856020860161087b565b6106b3816108ae565b840191505092915050565b60006106c98261083b565b6106d38185610857565b93506106e381856020860161087b565b80840191505092915050565b60006106fa82610830565b6107048185610846565b935061071481856020860161087b565b61071d816108ae565b840191505092915050565b600061073482846106be565b915081905092915050565b600060408201905081810360008301526107598185610685565b9050818103602083015261076d8184610685565b90509392505050565b6000608082019050818103600083015261079081876106ef565b905081810360208301526107a481866106ef565b905081810360408301526107b881856106ef565b905081810360608301526107cc81846106ef565b905095945050505050565b6000604051905081810181811067ffffffffffffffff821117156107fa57600080fd5b8060405250919050565b600067ffffffffffffffff82111561081b57600080fd5b601f19601f8301169050602081019050919050565b600081519050919050565b600081519050919050565b600082825260208201905092915050565b600081905092915050565b6000819050919050565b82818337600083830152505050565b60005b8381101561089957808201518184015260208101905061087e565b838111156108a8576000848401525b50505050565b6000601f19601f8301169050919050565b6108c881610862565b81146108d357600080fd5b5056fea365627a7a72315820d7b5bd188aba5488f6e14ec48bcf2a84b9cb9bf4ed501fb4f69dadc550a575906c6578706572696d656e74616cf564736f6c63430005100040",
  "source": "// SPDX-License-Identifier: MIT\r\npragma solidity ^0.5.0;\r\npragma experimental ABIEncoderV2;\r\n\r\ncontract Patient {\r\n    // Define a struct to represent a patient's bill\r\n    struct Bill {\r\n        string username;\r\n        string patientId;\r\n        string billType;\r\n        string amount;\r\n    }\r\n\r\n    // Define an array to store all bills\r\n    Bill[] public bills;\r\n\r\n    // Event to emit when a new bill is added\r\n    event BillAdded(\r\n        string indexed username,\r\n        string indexed patientId,\r\n        string billType,\r\n        string amount\r\n    );\r\n\r\n    // Function to add a new bill\r\n    function addBill(string memory _username, string memory _patientId, string memory _billType, string memory _amount) public {\r\n        // Create a new bill object\r\n        Bill memory newBill = Bill(_username, _patientId, _billType, _amount);\r\n\r\n        // Add the new bill to the array\r\n        bills.push(newBill);\r\n\r\n        // Emit the BillAdded event\r\n        emit BillAdded(_username, _patientId, _billType, _amount);\r\n    }\r\n}",
  "sourcePath": "C:\\Users\\kotha\\Desktop\\SE\\patient_data_management\\contracts\\Patient.sol",
  "compiler": {
    "name": "solc",
    "version": "0.5.16+commit.9c3226ce.Emscripten.clang"
  },
  "schemaVersion": "3.4.16",
  "updatedAt": "2024-05-09T05:59:43.044Z",
  "devdoc": {
    "methods": {}
  },
  "userdoc": {
    "methods": {}
  }
}