{
  "contractName": "Hospital",
  "abi": [
    {
      "constant": true,
      "inputs": [
        {
          "internalType": "string",
          "name": "",
          "type": "string"
        }
      ],
      "name": "patients",
      "outputs": [
        {
          "internalType": "string",
          "name": "patientId",
          "type": "string"
        },
        {
          "internalType": "string",
          "name": "patientName",
          "type": "string"
        },
        {
          "internalType": "uint256",
          "name": "age",
          "type": "uint256"
        }
      ],
      "payable": false,
      "stateMutability": "view",
      "type": "function"
    },
    {
      "constant": false,
      "inputs": [
        {
          "internalType": "string",
          "name": "_patientId",
          "type": "string"
        },
        {
          "internalType": "string",
          "name": "_patientName",
          "type": "string"
        },
        {
          "internalType": "uint256",
          "name": "_age",
          "type": "uint256"
        }
      ],
      "name": "addPatient",
      "outputs": [],
      "payable": false,
      "stateMutability": "nonpayable",
      "type": "function"
    }
  ],
  "bytecode": "0x608060405234801561001057600080fd5b50610710806100206000396000f3fe608060405234801561001057600080fd5b50600436106100365760003560e01c80630a72fa431461003b578063c6009d8414610057575b600080fd5b6100556004803603610050919081019061044e565b610089565b005b610071600480360361006c919081019061040d565b61011a565b6040516100809392919061055d565b60405180910390f35b61009161028a565b6040518060600160405280858152602001848152602001838152509050806000856040516100bf9190610546565b908152602001604051809103902060008201518160000190805190602001906100e99291906102ab565b5060208201518160010190805190602001906101069291906102ab565b506040820151816002015590505050505050565b600081805160208101820180518482526020830160208501208183528095505050505050600091509050806000018054600181600116156101000203166002900480601f0160208091040260200160405190810160405280929190818152602001828054600181600116156101000203166002900480156101dc5780601f106101b1576101008083540402835291602001916101dc565b820191906000526020600020905b8154815290600101906020018083116101bf57829003601f168201915b505050505090806001018054600181600116156101000203166002900480601f01602080910402602001604051908101604052809291908181526020018280546001816001161561010002031660029004801561027a5780601f1061024f5761010080835404028352916020019161027a565b820191906000526020600020905b81548152906001019060200180831161025d57829003601f168201915b5050505050908060020154905083565b60405180606001604052806060815260200160608152602001600081525090565b828054600181600116156101000203166002900490600052602060002090601f016020900481019282601f106102ec57805160ff191683800117855561031a565b8280016001018555821561031a579182015b828111156103195782518255916020019190600101906102fe565b5b509050610327919061032b565b5090565b61034d91905b80821115610349576000816000905550600101610331565b5090565b90565b600082601f83011261036157600080fd5b813561037461036f826105cf565b6105a2565b9150808252602083016020830185838301111561039057600080fd5b61039b838284610663565b50505092915050565b600082601f8301126103b557600080fd5b81356103c86103c3826105fb565b6105a2565b915080825260208301602083018583830111156103e457600080fd5b6103ef838284610663565b50505092915050565b600081359050610407816106b6565b92915050565b60006020828403121561041f57600080fd5b600082013567ffffffffffffffff81111561043957600080fd5b61044584828501610350565b91505092915050565b60008060006060848603121561046357600080fd5b600084013567ffffffffffffffff81111561047d57600080fd5b610489868287016103a4565b935050602084013567ffffffffffffffff8111156104a657600080fd5b6104b2868287016103a4565b92505060406104c3868287016103f8565b9150509250925092565b60006104d882610632565b6104e2818561064e565b93506104f2818560208601610672565b80840191505092915050565b600061050982610627565b610513818561063d565b9350610523818560208601610672565b61052c816106a5565b840191505092915050565b61054081610659565b82525050565b600061055282846104cd565b915081905092915050565b6000606082019050818103600083015261057781866104fe565b9050818103602083015261058b81856104fe565b905061059a6040830184610537565b949350505050565b6000604051905081810181811067ffffffffffffffff821117156105c557600080fd5b8060405250919050565b600067ffffffffffffffff8211156105e657600080fd5b601f19601f8301169050602081019050919050565b600067ffffffffffffffff82111561061257600080fd5b601f19601f8301169050602081019050919050565b600081519050919050565b600081519050919050565b600082825260208201905092915050565b600081905092915050565b6000819050919050565b82818337600083830152505050565b60005b83811015610690578082015181840152602081019050610675565b8381111561069f576000848401525b50505050565b6000601f19601f8301169050919050565b6106bf81610659565b81146106ca57600080fd5b5056fea365627a7a723158206399a00987cd0ac5c7e11c224acfeff7ff3e36414e32bcd18c8ba7272a90c7a56c6578706572696d656e74616cf564736f6c63430005100040",
  "source": "// SPDX-License-Identifier: MIT\r\npragma solidity ^0.5.0;\r\npragma experimental ABIEncoderV2;\r\ncontract Hospital {\r\n    // Define a struct to represent patient details\r\n    struct Patient {\r\n        string patientId;\r\n        string patientName;\r\n        uint256 age;\r\n    }\r\n\r\n    // Define a mapping to store patient details\r\n    mapping(string => Patient) public patients;\r\n\r\n    // Function to add a new patient\r\n    function addPatient(string memory _patientId, string memory _patientName, uint256 _age) public {\r\n        // Create a new patient object\r\n        Patient memory newPatient = Patient(_patientId, _patientName, _age);\r\n\r\n        // Add the new patient to the mapping\r\n        patients[_patientId] = newPatient;\r\n    }\r\n}\r\n",
  "sourcePath": "C:\\Users\\kotha\\Desktop\\SE\\patient_data_management\\contracts\\Hospital.sol",
  "compiler": {
    "name": "solc",
    "version": "0.5.16+commit.9c3226ce.Emscripten.clang"
  },
  "schemaVersion": "3.4.16",
  "updatedAt": "2024-05-06T05:59:02.849Z",
  "networkType": "ethereum",
  "devdoc": {
    "methods": {}
  },
  "userdoc": {
    "methods": {}
  }
}