{
  "contractName": "MedicalBills",
  "abi": [
    {
      "anonymous": false,
      "inputs": [
        {
          "indexed": false,
          "internalType": "string",
          "name": "patientId",
          "type": "string"
        },
        {
          "indexed": false,
          "internalType": "string",
          "name": "patientName",
          "type": "string"
        },
        {
          "indexed": false,
          "internalType": "string",
          "name": "billType",
          "type": "string"
        },
        {
          "indexed": false,
          "internalType": "uint256",
          "name": "amount",
          "type": "uint256"
        }
      ],
      "name": "BillAdded",
      "type": "event"
    },
    {
      "constant": true,
      "inputs": [
        {
          "internalType": "string",
          "name": "",
          "type": "string"
        }
      ],
      "name": "bills",
      "outputs": [
        {
          "internalType": "string",
          "name": "patientName",
          "type": "string"
        },
        {
          "internalType": "string",
          "name": "billType",
          "type": "string"
        },
        {
          "internalType": "uint256",
          "name": "amount",
          "type": "uint256"
        }
      ],
      "payable": false,
      "stateMutability": "view",
      "type": "function"
    },
    {
      "constant": false,
      "inputs": [
        {
          "internalType": "string",
          "name": "patientId",
          "type": "string"
        },
        {
          "internalType": "string",
          "name": "patientName",
          "type": "string"
        },
        {
          "internalType": "string",
          "name": "billType",
          "type": "string"
        },
        {
          "internalType": "uint256",
          "name": "amount",
          "type": "uint256"
        }
      ],
      "name": "addBill",
      "outputs": [],
      "payable": false,
      "stateMutability": "nonpayable",
      "type": "function"
    }
  ],
  "bytecode": "0x608060405234801561001057600080fd5b506107e0806100206000396000f3fe608060405234801561001057600080fd5b50600436106100365760003560e01c8063100a29141461003b578063a01e95a614610057575b600080fd5b6100556004803603610050919081019061045f565b610089565b005b610071600480360361006c919081019061041e565b61014c565b6040516100809392919061062d565b60405180910390f35b6040518060600160405280848152602001838152602001828152506000856040516100b491906105bc565b908152602001604051809103902060008201518160000190805190602001906100de9291906102bc565b5060208201518160010190805190602001906100fb9291906102bc565b50604082015181600201559050507f2f772a8045250850fcefee8cc5f1973c07aa93dce18dea3552be9448aae889d68484848460405161013e94939291906105d3565b60405180910390a150505050565b600081805160208101820180518482526020830160208501208183528095505050505050600091509050806000018054600181600116156101000203166002900480601f01602080910402602001604051908101604052809291908181526020018280546001816001161561010002031660029004801561020e5780601f106101e35761010080835404028352916020019161020e565b820191906000526020600020905b8154815290600101906020018083116101f157829003601f168201915b505050505090806001018054600181600116156101000203166002900480601f0160208091040260200160405190810160405280929190818152602001828054600181600116156101000203166002900480156102ac5780601f10610281576101008083540402835291602001916102ac565b820191906000526020600020905b81548152906001019060200180831161028f57829003601f168201915b5050505050908060020154905083565b828054600181600116156101000203166002900490600052602060002090601f016020900481019282601f106102fd57805160ff191683800117855561032b565b8280016001018555821561032b579182015b8281111561032a57825182559160200191906001019061030f565b5b509050610338919061033c565b5090565b61035e91905b8082111561035a576000816000905550600101610342565b5090565b90565b600082601f83011261037257600080fd5b81356103856103808261069f565b610672565b915080825260208301602083018583830111156103a157600080fd5b6103ac838284610733565b50505092915050565b600082601f8301126103c657600080fd5b81356103d96103d4826106cb565b610672565b915080825260208301602083018583830111156103f557600080fd5b610400838284610733565b50505092915050565b60008135905061041881610786565b92915050565b60006020828403121561043057600080fd5b600082013567ffffffffffffffff81111561044a57600080fd5b61045684828501610361565b91505092915050565b6000806000806080858703121561047557600080fd5b600085013567ffffffffffffffff81111561048f57600080fd5b61049b878288016103b5565b945050602085013567ffffffffffffffff8111156104b857600080fd5b6104c4878288016103b5565b935050604085013567ffffffffffffffff8111156104e157600080fd5b6104ed878288016103b5565b92505060606104fe87828801610409565b91505092959194509250565b600061051582610702565b61051f818561070d565b935061052f818560208601610742565b61053881610775565b840191505092915050565b600061054e82610702565b610558818561071e565b9350610568818560208601610742565b80840191505092915050565b600061057f826106f7565b610589818561070d565b9350610599818560208601610742565b6105a281610775565b840191505092915050565b6105b681610729565b82525050565b60006105c88284610543565b915081905092915050565b600060808201905081810360008301526105ed818761050a565b90508181036020830152610601818661050a565b90508181036040830152610615818561050a565b905061062460608301846105ad565b95945050505050565b600060608201905081810360008301526106478186610574565b9050818103602083015261065b8185610574565b905061066a60408301846105ad565b949350505050565b6000604051905081810181811067ffffffffffffffff8211171561069557600080fd5b8060405250919050565b600067ffffffffffffffff8211156106b657600080fd5b601f19601f8301169050602081019050919050565b600067ffffffffffffffff8211156106e257600080fd5b601f19601f8301169050602081019050919050565b600081519050919050565b600081519050919050565b600082825260208201905092915050565b600081905092915050565b6000819050919050565b82818337600083830152505050565b60005b83811015610760578082015181840152602081019050610745565b8381111561076f576000848401525b50505050565b6000601f19601f8301169050919050565b61078f81610729565b811461079a57600080fd5b5056fea365627a7a72315820d0597244e0c7bfaf05a84eed3a4f920c21aa12806ff310e456a495fe1be22ca56c6578706572696d656e74616cf564736f6c63430005100040",
  "source": "// SPDX-License-Identifier: MIT\r\npragma solidity ^0.5.0;\r\npragma experimental ABIEncoderV2;\r\ncontract MedicalBills {\r\n    event BillAdded(\r\n        string patientId,\r\n        string patientName,\r\n        string billType,\r\n        uint amount\r\n    );\r\n\r\n    struct Bill {\r\n        string patientName;\r\n        string billType;\r\n        uint amount;\r\n    }\r\n\r\n    mapping(string => Bill) public bills;\r\n\r\n    function addBill(string memory patientId, string memory patientName, string memory billType, uint amount) public {\r\n        bills[patientId] = Bill(patientName, billType, amount);\r\n        emit BillAdded(patientId, patientName, billType, amount);\r\n    }\r\n}\r\n",
  "sourcePath": "C:\\Users\\kotha\\Desktop\\SE\\patient_data_management\\contracts\\Medical.sol",
  "compiler": {
    "name": "solc",
    "version": "0.5.16+commit.9c3226ce.Emscripten.clang"
  },
  "schemaVersion": "3.4.16",
  "updatedAt": "2024-04-30T16:49:14.070Z",
  "devdoc": {
    "methods": {}
  },
  "userdoc": {
    "methods": {}
  }
}